:100000000C944C000C9469000C9469000C946900E9
:100010000C9469000C9469000C9469000C946900BC
:100020000C9469000C9469000C9469000C946900AC
:100030000C9469000C9469000C9469000C9469009C
:100040000C9469000C9469000C9469000C9469008C
:100050000C9469000C9469000C9469000C9469007C
:100060000C9469000C9469000C9469000C9469006C
:100070000C9469000C9469000C9469000C9469005C
:100080000C9469000C9469000C9469000C9469004C
:100090000C9469000C94690011241FBECFEFD0E1CD
:1000A000DEBFCDBF11E0A0E0B1E0E4E8F3E002C0C4
:1000B00005900D92A033B107D9F711E0A0E3B1E0AC
:1000C00001C01D92A033B107E1F70E94A2010C9478
:1000D000C0010C940000709A00C070980895CF93EE
:1000E000662311F05F9A01C05F985E983B9A3A9A36
:1000F000399A389A409841984298439888230CF44A
:10010000409AC82F86FD419AC5FD429AC4FD439A84
:100110000E946B004098419842984398C3FD409AD2
:10012000C2FD419AC1FD429AC0FD439A0E946B00F4
:10013000439A429A419A409ACF910895882311F0A8
:100140005F9A01C05F985E9A3B983A9839983898C0
:10015000709A00C0339902C080E001C080E13299FA
:1001600080623199806430998068709800C0709A7C
:1001700000C03399816032998260319984603099EE
:10018000886070980895CF93CFEF03C0C15031F0CD
:10019000000080E00E949E008823C4F388E090E085
:1001A0000197F1F780E00E949E00CF910895CF93D0
:1001B000C82F0E94C3008C2F60E00E946F00CF9177
:1001C0000895CF93C82F0E94C3008C2F61E00E9436
:1001D0006F00CF910895662321F480580E94D700C4
:1001E000089580540E94D70008950E94C30090E0B3
:1001F000089581E00E94D700089580E00E94D70012
:10020000089582E00E94D7000895CF93C82F0E94DE
:10021000C300CA3049F4803410F480E401C080E0A7
:1002200080580E94D70004C08C2F61E00E946F00AC
:10023000CF910895CF93DF93EC018881882331F02B
:1002400021960E94050189918823D9F7DF91CF91EA
:100250000895CF93DF93EC01FC018491882341F052
:1002600021960E940501FE01219684918823C9F7F9
:10027000DF91CF9108951F93CF93DF93182F579A53
:10028000569A689A3B9A3A9A399A389A80E09AEF45
:100290000197F1F7429A439A0E946B0080E09EE436
:1002A0000197F1F70E946B00C0E0D1E0CE01019709
:1002B000F1F70E946B00CE010197F1F743980E947D
:1002C0006B002197F1F788E20E94D70088E00E9436
:1002D000D7000E94F90086E00E94D700812F0E947B
:1002E000D700DF91CF911F910895CF93DF93EA015B
:1002F000615081500E94EB00CE010E941A01DF91F3
:10030000CF910895CF93DF93C0E0D1E081E061E029
:10031000AE010E94750181E062E0AE010E947501AC
:10032000DF91CF91089543984398439843983B9821
:100330003A98399838985F985E9870985798569878
:10034000689808958CE00E943B010E94F90081E0CA
:1003500061E041E151E00E94750181E062E04EE11F
:1003600051E00E9475018FEF81B980B92FE73AE122
:1003700046E0215030404040E1F700C00000F5CF9A
:04038000F894FFCF1F
:100384002020202020202020202020202020202069
:100394000048656C6C6F20776F726C642100342D9B
:1003A400626974696E6520737568746C7573000096
:00000001FF
