:100000000C944C000C9469000C9469000C946900E9
:100010000C9469000C9469000C9469000C946900BC
:100020000C9469000C9469000C9469000C946900AC
:100030000C9469000C9469000C9469000C9469009C
:100040000C9469000C9469000C9469000C9469008C
:100050000C9469000C9469000C9469000C9469007C
:100060000C9469000C9469000C9469000C9469006C
:100070000C9469000C9469000C9469000C9469005C
:100080000C9469000C9469000C9469000C9469004C
:100090000C9469000C94690011241FBECFEFD0E1CD
:1000A000DEBFCDBF11E0A0E0B1E0E4E4F3E002C0C8
:1000B00005900D92AE31B107D9F711E0AEE1B1E094
:1000C00001C01D92AE31B107E1F70E9484010C948A
:1000D000A0010C940000662311F05F9A01C05F98A4
:1000E000882314F4409A01C04098982F86FF02C0DC
:1000F000419A01C0419895FF02C0429A01C04298BE
:1001000094FF02C0439A01C043980000709A000017
:10011000709893FF02C0409A01C0409892FF02C0BD
:10012000419A01C0419891FF02C0429A01C0429891
:1001300090FF02C0439A01C043980000709A0000EB
:100140007098409A419A429A439A662349F48430BF
:1001500038F483E393E00197F1F700C000000895BD
:100160009AE19A95F1F700C008955F9A5E9A3898DF
:1001700039983A983B98709A0000339B02C080E10E
:1001800001C080E0329B02C070E201C070E0319B90
:1001900002C060E401C060E0309B02C050E801C0D2
:1001A00050E070980000709A000091E0339B90E05E
:1001B000329B02C042E001C040E0319B02C034E00B
:1001C00001C030E0309B02C028E001C020E0709800
:1001D000389A399A3A9A3B9A409A419A429A439A63
:1001E0005E98EAE1EA95F1F700C0892B872B862B10
:1001F000852B842B832B822B089560E00E946B005B
:10020000089580580E94FD00089581E00E94FD003D
:10021000089582E00E94FD00089561E00E946B0055
:100220000895CF93DF93EC018881882331F02196E4
:100230000E940D0189918823D9F7DF91CF9108950C
:10024000CF93DF93EC01FC018491882341F0219648
:100250000E940D01FE01219684918823C9F7DF9148
:10026000CF910895689A579A569A389A399A3A9A35
:100270003B9A70985F985E98409A419A429A439A46
:100280008BE49DE10197F1F700C000004098419890
:100290000000709A0000709881E098E00197F1F7F3
:1002A00000C00000709A0000709892E49A95F1F7EF
:1002B00000C0709A000070988AE18A95F1F700C03A
:1002C00043980000709A000070989AE19A95F1F7AF
:1002D00000C043980000709A000070980000409A97
:1002E0000000709A000070988AE18A95F1F700C0CA
:1002F00088E00E94FD000E94050186E00E94FD004A
:100300008CE00E94FD0008950E9432010E940501C8
:1003100080E091E00E94110180E40E9401018DE0E3
:1003200091E00E9411018FEF81B980B92FE33DE088
:1003300043E0215030404040E1F700C00000F5CFDD
:04034000F894FFCF5F
:1003440048656C6C6F20776F726C642100382D6285
:0E0354006974696E6520737568746C7573004A
:00000001FF
